:020000040000FA
:2010000000000420597C0000817C0000837C0000857C0000877C0000897C000000000000D2
:201020000000000000000000000000008B7C00008D7C0000000000008F7C0000917C000088
:20104000052E00003920000075160000937C0000937C0000937C000071290000937C0000A3
:20106000ED150000937C0000937C000051250000937C0000612B0000937C0000937C000021
:20108000912B0000937C0000937C0000937C0000937C0000937C0000937C0000937C00002B
:2010A000937C0000937C0000937C0000937C0000937C0000937C00000000000000000000D6
:2010C000937C0000937C0000937C0000937C0000937C0000937C0000937C0000E56E000054
:2010E000937C0000937C0000937C00000000000000000000937C000000000000937C0000A5
:201100000000000000000000000000000000000000000000000000000000000000000000CF
:201120000000000000000000000000000000000000000000000000000000000000000000AF
:2011400000000000000000000000000000000000000000000000000000000000000000008F
:2011600000000000000000000000000000000000000000000000000000000000000000006F
:2011800000000000000000000000000000000000000000000000000000000000000000004F
:2011A00000000000000000000000000000000000000000000000000000000000000000002F
:2011C00000000000000000000000000000000000000000000000000000000000000000000F
:2011E0000000000000000000000000000000000000000000000000000000000000000000EF
:2012000010B5054C237833B9044B13B10448AFF300800123237010BDE80200200000000022
:20122000683501000C4B43B10C480D4910B5AFF300800C48036823B910BD0A48036833B923
:201240007047094B002BF7D0BDE810401847064B002BF5D0184700BF000000006835010040
:20126000EC020020E402002000000000154B002B08BF134B9D46A3F5803A00218B460F462E
:201280001348144A121A11F003FC0F4B002B00D098470E4B002B00D09847002000210400BD
:2012A0000D000D48002802D00C48AFF3008000F02BF82000290007F09BF800F011F800BFBE
:2012C00000000800000004200000000000000000E80200201435002000000000000000006F
:2012E00008B5074B044613B10021AFF30080054B1868836A03B19847204600F029F800BF08
:2013000000000000842B010070B50D4E0D4CA41BA4100025A54209D10B4E0C4C11F026FC17
:20132000A41BA4100025A54205D170BD56F8253098470135EEE756F8253098470135F2E70D
:20134000DC020020DC020020DC020020E0020020FEE700BF08B508F0A9FBBDE8084008F0AF
:2013600079B900BF00B585B008F05EF8002007F067FF00F04DF908F021F900F005FF08F093
:201380001DF900F08DFFF420CE2136224FF080538DF808008DF809108DF80A20D3F8A820E1
:2013A0008DF80B2004A9D3F8A43041F80C3D042203A811F084FB02A90822034811F07FFBC3
:2013C00005B05DF804FB00BF042A00200021014807F014BC5001002010B500F0A5F90446B8
:2013E000BFF35F8F07F09CFC00B930BFBFF35F8F2046BDE8104000F09BB900BF802802D19D
:20140000024B00221A600120704700BF04C500400120704730B5154C012383B0236000F05B
:20142000D9F86FF003052D1A03E000F0D3F8C54203D5D4F80031002BF7D00C4B0022C3F88D
:201440000021D3F80825920508D4D3F80835074A019301235360019803B030BDD3F80835FB
:201460006FEA83536FEA9353F1E700BF00C00040F8B5E0B10578F5B1D9B1044647180026AD
:2014800006E0631C0FD014F8015F65B1BC420AD0284600F0C9FE0A2D06F10106F1D100F0A2
:2014A00091FE631CEFD100F08DFE3046F8BD0646F9E70E46F7E72E46F5E700BF00B5134B38
:2014C00083B000221A6001F0A7FD08B100F008FF002001F0BDFD0E4B0E4A18689B88ADF834
:2014E0000430009000230C488DF80430694600F0C5FF08B100F0F4FE0121074801F012F88E
:20150000054801F003F803B05DF804FB04030020BC2B010049150000C42B0100014B186862
:20152000704700BF0403002008B5064A13680133136007F067FA00B908BDBDE8084007F025
:2015400037BA00BF04030020042800D07047FFF7EBBF00BF014B1868C0097047040300202F
:2015600010B4164A164B17490020106083B012680192019AD3F8102522F00F0242F00802BC
:20158000C3F81025D3F8082542F00302C3F80825D3F804254FF4803422F003024FF480700F
:2015A000C3F80425C3F80443C1F88001086001221A6003B05DF8044B704700BF4081004038
:2015C0000080004000E100E0014BC3F84005704700800040034A044B01211160D3F8440584
:2015E000704700BF4480004000800040074B1A6802B9704700B500221A6083B01B680193D0
:20160000019B07F04FFA03B05DF804FB40810040F0B4144B1448154F154C4FF0A041002280
:2016200003264FF00055C3F80025C1F87467C1F808551F261D25C1F87C2782B0C3F82475FA
:20164000C3F86C25C3F81465C3F80C55026002680192019804210122C3F80015226002B0AA
:20166000F0BC7047002000401C21004000E0D7010820004000B5084B0849094A00201860C6
:2016800083B01B680193019BD1F818051368C0B2984703B05DF804FB0821004000200040E2
:2016A000080300204FF0A0434FF49A510022C3F80815C3F80C25704700B50D4B93E8070083
:2016C00085B001AB83E8070018460A4901F074FA58B9094801F0AAFA08B100F001FE074BB6
:2016E00001221A7005B05DF804FB00F0F9FDF0E7CC2B0100A5160000C0280020C1280020B3
:20170000024B1B7803B9704701F082BAC1280020034B1B7803B97047024B187801F0ACBAB8
:20172000C1280020C0280020EFF3108072B6704780F31088704700BF10B5044600F074FD56
:20174000C02C00D010BDBDE8104000F03BBD00BF014800F093BD00BFBD99000000F01F03B4
:201760000121C0F34710994008F084B908B500F09FFF00B108BDBDE8084000F04BBF00BFC8
:2017800030B583B01446022301F01F0100228DF8063014F00C0341EA4015ADF8042008D090
:2017A000042B25D0082B27D00C2B04BF03238DF8043014F0030306D0022B15D0012B04BF21
:2017C00003238DF8053001A90D4A284600F07AFF2306284604D5012101F016F803B030BD20
:2017E00001F08EF803B030BD01238DF80530EAE701238DF80430DCE702238DF80430D8E7E6
:201800005D17000001F01F0141EA40101F28CABF054B4FF0A04300F01F00D3F8101521FA6C
:2018200000F000F00100704700030050024B0022C3F8FC2F012070470010004089B11828C6
:2018400000F28380DFE800F00F118181736A7C654F4944818181403C383481302C2824216B
:201860001D000220704700207047394B394AD3F80835A2FB03239B080A33DBB20B600020D1
:2018800070477D230B600020704700200860704710230B60002070470A230B60002070478C
:2018A00020230B600020704703230B600020704708230B6000207047D8230B600020704791
:2018C0001A230B60002070470B230B6000207047214B1B780B6000207047204B93F90030B1
:2018E0000B60002070471E4B1E4A012082B018601368002BFCD0002010601268144B01929C
:20190000019AD3F8483503F07F035B420B6002B07047154B5B790B6000207047124BDB78D8
:2019200000200860002B9ED001230B6070470E4B1B7800200860002B95D004230B607047F3
:20194000094B5B780B60002070470120704700BF00100040CDCCCCCCC2280020C3280020F1
:20196000141000401C110040DC0000200120704770B582B0FFF7D8FEBFF35F8F1B4B1B7806
:20198000FBB91B4903F0FF020A600968194B019101991A601A681849184B00924FF0FF350B
:2019A00002224FF44054009EC1F80853C3F88021C1F804431A60BFF35F8FFFF7B9FE02B0A5
:2019C00070BD0E4B0C4902224FF0FF34C1F80843C3F88021C3F88020BFF34F8FBFF36F8F9B
:2019E000BFF35F8FFFF7A4FE02B070BDDC00002030110040341100400010004000E100E0BD
:201A0000144BD3F8FC0F50B1D3F85035DBB2032B06D00020704792F8800080F001007047A6
:201A20000D4B1B7803F0FF0073B10C4B1B78053B7A2BEED80A4B1B68002BEAD1094B18687E
:201A4000B0FA80F040097047044A1378053B7A2BE1D9704700100040DC0000200C030020C2
:201A60003011004034110040074A1378053B7A2B01D900207047054B1B6813B992F8800045
:201A800070470120704700BF0C030020301100400C2801D001207047042A01D00220704793
:201AA0000029FBD0024B1B680B600020704700BF9003002070B51B4CD4F85055EDB2032DE2
:201AC00082B028D0184B194AC4F8042518481949C3F810054FF000620126C3F81415C3F838
:201AE0000465C3F80425FFF743FFD4F8003243F01003C4F80032D4F80032022D43F40023A8
:201B0000C4F8003209D00C4B0C4A002119601B680193019B166002B070BD094B1E6002B02B
:201B200070BD00BF0010004000F001400C030020381100404C800040581100400410004077
:201B40000810004070B52F4E2F49304A304B314D0024346084B036680096009E0C60096805
:201B600001910199146012680292029A1C602A781B680393531F7A2B039909D98122214645
:201B8000284610F085FFFFF795FF204604B070BD941E2246691C10F092FF2B195B783F2BD1
:201BA0002CD9FF231C4E1D4A3370D2F848351C4A03F07F035B425BB299B20420137008F0D4
:201BC0004BFB3178032008F047FB164B2A7816491A74D1F84C055860D1F848159960520086
:201BE000DA605D680B4881220021023D1D6010F04FFFFFF75FFF204604B070BD9B00DBB202
:201C0000D0E700BF381100400C11004034110040301100400C030020C228002000100040D9
:201C2000C3280020900300200080004010B503880446FBB140F2C932934203D1822905D08A
:201C4000012010BD00230380032010BDFFF70CFF80B1FFF75DFD08F0ABFA08F063FA8021EB
:201C6000FFF770FF002805DD80B208F055FA044BDB68984740F2C9332380012010BD00BF8D
:201C8000483301007D2910B50C4609D801460A48A31C00F8013B224610F011FF002010BD39
:201CA000064A0749074809F099FC21467D22064809F094FC012010BDA4030020102C0100D8
:201CC000202C0100242C0100342C010030B5264C264A27480F23C4F8103593780A3B03EB5E
:201CE0008303C4F808351179D579937952791B0643EA05230B4385B043EA0243002540F2F4
:201D00000222C4F86C362946C4F83425C4F838050D226846C4F83C5510F0BAFE9DF802202B
:201D20009DF801309DF804009DF80710120442EA032242F0C06343F0080343EA805343EA71
:201D40004173C4F814359DF80A309DF809201B0443EA022343F07F0340F20122C4F81835B9
:201D6000C4F8502605B030BD00100040DC0000202110010008B5064BD3F8FC2F22B901220F
:201D8000C3F8FC2FFFF7A2FFFFF794FE012008BD0010004030B585B0FFF7ECFF104A114959
:201DA0001148124C0023136015680395039D0B600D680295029D03600368019301230198EC
:201DC000236001E00B6813B91368002BFAD0044A044B10681B68B0FA80F0400905B030BD53
:201DE00048110040441100404C1100402C10004010B5072856D8DFE800F0191F5555374268
:201E000049042E4A2E48C9B25171D0F8FC3F5BB11179D479937952791B0643EA04230B43CA
:201E200043EA0243C0F86C36002010BD012940D0002939D0022010BDA1F10B030F2BF9D8E3
:201E40001E4A1F4BC8B29070D3F8FC2F002AEBD00A3901EB81010024C3F8FC4FC3F80815A8
:201E6000FFF788FF204610BD31F00704E2D1134BC1F380011970FFF77BFD204610BD31F0F5
:201E80000100D7D10D4BC9B2D97010BD0B4A0C4BC9B25170D3F8FC2F002AC5D0C3F80C1537
:201EA000002010BD012010BD054BC3F8FC1F084610BDFFF75FFF002010BD00BFDC0000200A
:201EC0000010004010B57D2884B03FD8294CFFF751FFE378002B46D16378274A2749DBB25C
:201EE0000120C2F80C350860D2F85035DBB2022BFAD12349234BC2F8043500230B600868BF
:201F0000019001980B66086E029002988B648B6C0393039BD2F80032012143F48023C2F8B8
:201F200000321160FFF756FB6FF00204241AFFF751FBE042FBD4104AD2F85035DBB20B2B75
:201F4000FAD0FFF7B7FD002004B010BD04460E4A0E490F4809F042FB21460E4809F03EFBF7
:201F6000012004B010BDFFF715FF0028B4D1022004B010BDDC000020001000400C100040BD
:201F80000C110040A4030020102C0100202C0100242C0100682C010010B50C46FFF772FE30
:201FA0002046BDE81040FFF78DBF00BF10B51A491A481B4A1B4C00230B6003704B60237030
:201FC0008B6082B0CB600B741360136800934FF080430121009819601368002BFCD00024EE
:201FE00014601368019321460F48019B06F006FE214681220D4810F04BFD0D4B0122C3F82D
:20200000FC2FFFF763FE0B4A1378DBB21370FFF7AFFC204602B010BD90030020C22800200B
:2020200000010040C3280020CC0000200C03002000100040DC000020144B1B78B3B900B5DA
:2020400003F0FF02124B196883B081B9114B1A684AB119601B68019381220F48019B10F042
:2020600017FDFFF727FD03B05DF804FB70471A601A68094B009209480099012283F880206A
:2020800006F084FE03B05DF804FB00BFDC00002030110040341100400C030020CC000020E5
:2020A0002DE9F843032903D8DFE801F004332922BDE8F883194F1A4EDFF87090804640467B
:2020C00002F0E6FE3B6805464BB140B1002400E03B68305D0134E4B29847A542F8D8402258
:2020E0003146484602F0D8FE0028E8D0BDE8F8830C490D4A00230B701370BDE8F8834022C4
:2021000007490A4802F0C8FE074B01221A70BDE8F883044B00221A70BDE8F88324040020E3
:20212000B0040020C6280020C5280020842C0100083808B506281ED8DFE800F01A110D1DD2
:202140001D1D04000E490F4A00230B701370BDE8084001F051B9BDE8084001F04FB9084951
:20216000084A00230B701370BDE8084001F05AB904F044FB00B108BDBDE8084001F03AB981
:20218000C6280020C528002008B503F091FA094801F08EF800B108BD074801F051F90028F9
:2021A000F9D101F011F90028F5D1044A044B10701870F0E7A82C0100842C0100C52800205D
:2021C000C4280020134B1B781BB32DE9F041124D2B78E3B9114E3378CBB10123DFF844800A
:2021E0000F4F2B7032784146384602F02DFE0446FFF78EFA002CF5D12B7823B1FFF788FA71
:202200002B78002BFAD100233370BDE8F081BDE8F0817047C5280020C6280020C428002055
:20222000842C0100F0040020114B1B78ABB1114B1A783F2A0DD810B419781A780E4C0132DE
:20224000D2B21A701B786054402B0DD05DF8044B70471B78402B05D0704703F0FF02054BB8
:202260001A707047FFF7AEBF5DF8044BFFF7AABFC5280020C4280020F0040020014B1860C6
:20228000704700BF2404002041B94FF0A04303214FF40022C3F84C17C3F80C25704700BF5B
:2022A00030B40B4B0B4D1D604FF080510A4C0A6949695A61641B01FB02F100225C60196103
:2022C0001A815A81DA60054830BC01F0B9B800BF400500200010000074350100B42C0100F4
:2022E00000B585B000230390194601AA44F201000193029300F004F805B05DF804FB00BF20
:2023000072B6094B1B68DB0700D500BEBFF34F8F0649074BCA6802F4E0621343CB60BFF37B
:202320004F8F00BFFDE700BFF0ED00E000ED00E00400FA0572B6024A136801331360704783
:2023400058050020034A1368013B136003B962B6704700BF58050020054A13790BB1852086
:20236000704701211060537118461171704700BF5C050020084B1A68D20704D4C02283F896
:20238000002301221A604FF08041044A0123C1F818351370704700BF00E100E008350020EE
:2023A00010B4094B094A0021196083B01B680193019C4FF0804102200123C1F804031360B8
:2023C00003B05DF8044B70470401004008000040074B00221A6082B01B68019301994FF052
:2023E00080430122C3F804231A6002B0704700BF00010040074B01221A604FF08042D2F878
:202400000C3403F00113B3F1011FF8D0024B00225A717047040000405C05002010B5144B0F
:202420001A6882B062B10021124A19601B68507900934FF080410123009CC1F8083390B10B
:202440000D4B1A686AB100221A601B6801934FF080420221074B0198C2F808131B6801204C
:20246000984702B010BD116853718847E8E700BF000100405C0500200401004070B443797D
:202480001E4C1F4E03EB430546F82320655D15B1082070BC704790F904308A78002B24DB32
:2024A00003F1604303F561435201D2B283F8002390F90430002B07DB124D03F01F06012210
:2024C0005B09B24045F8232003680A88C3F8082543790879C97803EB4303E21801255070AF
:2024E0009170E554002070BC7047074D03F00F0352011D44D2B22A76DAE700BF6405002065
:202500006805002000E100E0FCEC00E00368044A01211960437903EB43030221D154704762
:202520006405002010B403680022C3F8002183B0D3F80031026801930123019CC2F84433C6
:2025400011B10268C2F8043303B05DF8044B70472DE9F043002585B02B4E2C4FDFF8B090A2
:20256000A8464FF4803406E00135032D4FEA440406F104061AD0D7F804332342F4D03368F4
:20258000002BF1D0C7F84843C7F80843C6F8008033680393E8B2D9F80030039A013598473F
:2025A000032D4FEA440406F10406E4D1174BD3F80423D10702D5D3F80021C2B9134BD3F821
:2025C0000423920702D5D3F8042112B905B0BDE8F0830022C3F804210D4AD3F804310193EF
:2025E00005201368019A984705B0BDE8F0830022C3F80021064AD3F8003102930420136876
:20260000029A9847DAE700BF40B1004000B000406805002030B5204C94F86A3083B013B1A3
:20262000082003B030BD04F12F0304F15F01FF2203F8012F8B42FBD1184A4FF0FF30206021
:20264000A2F159042146002307E0072B41F8040F02F1010288BF02F8010C0133DBB20C2B5F
:20266000F3D1062200210E4810F012FA0D4BC02283F8062340221A600B4B0C4A00201860ED
:202680001B680193019D4FF000410123C2F8041384F86A3003B030BD6C050020C5050020DF
:2026A000D005002000E100E07C61004000600040034B93F86A00003018BF0120704700BFC6
:2026C0006C050020F0B54D4E351895F93030002B01DB0820F0BD8B78C3F3400CBCF1000F51
:2026E00013D0336801337CD000274FF0080E7B1C06EB870404E054F8045F01350CD0013374
:2027000073451F46F7D30420F0BD336A01336DD008274FF00C0EEAE735187CB246F827209A
:2027200085F83040BCF1000F02D1374487F858008B785A071CD4DD0744D51F2887BF304B72
:2027400000F01F0202464FF0A04303EB8203D3F8002722F00202C3F800272A4DC20800F070
:20276000070EAF5C012303FA0EF33B43AB548B7813F002030AD1083C2644097896F8602077
:2027800042EA811286F860201846F0BDA30003F1804303F5C0430978D3F8104524F44F34E0
:2027A00024F44074C3F8104502020904D3F8100501F4403102F47C520A430243C3F81025A0
:2027C0000020F0BD1F284A7887BF0D4D00F01F0303464FF0A04503F5E073920045F82320A7
:2027E000BBE70024326085F83040A1E708231F46326285F830301C4697E700BF6C050020DB
:2028000000030050D0050020F0B43A4D2E1882B096F93030072B20DD2B4493F858309B0989
:20282000032B45D0012B14BF4FF440314FF400311F284DD900F01F002F4B03EB8000D0F802
:20284000002722F44032C0F80027D0F800370B43C0F8003702B0F0BC7047DAB2072AF9D80B
:20286000980000F1804000F5C04003F140029200D0F8104592B202F18042002744F00104DC
:2028800002F5C042C0F810450197019817600029E0D096F9302055F82220002ADAD001224C
:2028A000164902FA03F3C1F8043302B0F0BC70471F2810D9104BD3F8103500F01F00C34015
:2028C000DB0748BF4FF44031B6D44FF40031B3E74FF0A043B1E74FF0A0421346D2F8102590
:2028E000C24012F0010F14BF4FF440314FF40031A3E700BF6C0500200003005000600040FC
:20290000184B034493F93030072B13DD1F288ABF154B4FF0A04300F01F0003EB8000D0F8A8
:20292000003723F44033C0F80037D0F80037C0F800377047DAB2072A13D810B49A0002F149
:20294000804202F5C042094CD2F81005012120F0010001FA03F3C2F81005C4F808335DF849
:20296000044B70476C05002000030050006000402DE9F04F89B0002216460292039217463B
:202980006F4B704D704C012203E0A3424FEA420213D0184653F8041B0129F6D1D5F804131C
:2029A0000A42F2D043F8047C01680091A34246EA020600994FEA4202EBD1644B1A68012A09
:2029C00000F0A98016F0FF0F1AD0614F01250024A30003F180432E4203F5C0434FEA45059E
:2029E0000BD0D3F8100557F82420D3F81015C0F30520C1F3014102B190470134082CE7D120
:202A0000002E02DB09B0BDE8F08F524D00224FF0FF3305920492A5F16408069307934E4CA0
:202A20000027012614F9013B5A1C32D0DBB223F0C00008AA4FEAD00C02EB0C0E03F007025D
:202A40001EF8081C06FA02F2114222D008EB0009990999F9309058F82990B9F1000F3AD047
:202A600003293AD01F288BBFDFF8F0C04FF0A04C03F01F0303460CEB83031EF818CCD3F83D
:202A800000E71CEA020FCEF3014E1AD1BEF1030F2ED0A542C6D1002FB4D04FF0A043029990
:202AA000D3F810352D4A9942D2F8102502D103999142A7D00498059902930392069007916A
:202AC000ADE7BEF1020FE4D1032935D0B9F1000FDFD0C847DDE70329DBD10DF1100B0DF192
:202AE000100A1BF80CB04BEA020B0AF80CB0B9E70329EBD14FF40032D3F800E72EF4403E9E
:202B0000C3F800E7D3F800E7013742EA0E02FFB2C3F80027DAE700221A601B6801934FF0A7
:202B2000A042019BD2F810250C4B0292D3F81035039346F0004645E74FF44032DCE700BFA8
:202B40000061004000600040206100407C6100406C050020D0050020CC050020000300508C
:202B600000B5084B0849094A0020186083B01B680193019BD1F808051368C0B2984703B0D6
:202B80005DF804FB00D1004000D00040D805002010B5074C236882B03BB1064B1B6898474F
:202BA0000023236023680193019B02B010BD00BF00010140DC05002070B5114B114A1C78C3
:202BC00011600CB1082070BD0F4E027801211970C6F80C25416805464FF47A720023C803F0
:202BE000490C0FF0F5FCC6F804052B7A074A5B01DBB282F810334FF480331360204670BD31
:202C0000C8280020DC0500200000014000E100E0044B054901220220C3F804231A600870EB
:202C2000704700BF00000140C828002010B504460020FFF77FFB0E4A1378072B05D9042413
:202C40000020FFF77FFB204610BD0A492370581C1070D1F80805012202FA03F30343C1F8ED
:202C6000083500240020FFF76DFB204610BD00BFC72800200000014000F5C070024B034A74
:202C800043F82020704700BF000001403546526E104B1A780AB18520704710B402780E492E
:202CA0004FF08044C2F34002C4F88025027802F00102C4F878250A68D20704D4C02281F873
:202CC000002301220A6001221A7000205DF8044B704700BF0935002000E100E0034B026886
:202CE0000021196002B11A60704700BFE80500204FF080434FF46072C3F80423704700BF1B
:202D00004FF080434FF46072C3F80823704700BF014B00221A607047E805002010B54FF090
:202D2000804386B0D3F80443620705D5D3F8082103F58473002A4BD1A30603D5294B1A68A5
:202D4000002A3CD1600603D5274B1A68002A2CD1210602D5254B1A68F2B9E20502D5244B1B
:202D60001A687AB9A3050BD5224B1A6842B100221A60214A1B68059302201368059A9847F7
:202D800006B010BD00221A601B4A1B68049301201368049A9847E5E700201860164A1B6835
:202DA00003931368039A9847D7E700221A60134A1B68029301201368029A9847C8E70020D1
:202DC00018600E4A1B6801931368019A9847B9E700221A600A4A1B6800931368009A98477D
:202DE000AAE700BF14010040180100401C0100402001004024010040E8050020E40500209C
:202E0000E005002008B5FFF789FFBDE80840FFF705BB00BF10B44FF080414FF0805200201B
:202E2000C1F80C015E4BC1F81001C1F83805D2F80414C3F82015D2F80814C3F82415D2F8ED
:202E40000C14C3F82815D2F81014C3F82C15D2F81414C3F83015D2F81814C3F83415D2F8BA
:202E60001C14C3F84015D2F82014C3F84415D2F82414C3F84815D2F82814C3F84C15D2F8FA
:202E80002C14C3F85015D2F83014C3F85415D2F83414C3F86015D2F83814C3F86415D2F84A
:202EA0003C04C3F86805D2F840043E49C3F86C050968D2F84424C3F87025082924D04FF092
:202EC0008043D3F80024D20744BF6FF00102C3F80024354AD2F8883043F47003C2F8883006
:202EE000BFF34F8FBFF36F8F4FF01023D3F80022002A23DBD3F80432002B1FDB2B4B2C4AF9
:202F00001A605DF8044B70472A4B1B68002BD6D129482A4A2A4C04602A492B4BFB20C2F895
:202F200018050A681B68294822F00F0203F00F0313434FF400720B600260C0E7244B0122D5
:202F4000C3F80425D3F80024002AFBD04FF0102312221F49C3F80022D1F80034002BFBD0CB
:202F60004FF0102212211A4BC2F80412D3F80024002AFBD000221649C3F80425D1F8003432
:202F8000002BFBD0BFF34F8F0749124BCA6802F4E0621343CB60BFF34F8F00BFFDE700BF21
:202FA00000C000403001001000ED00E0F40000200090D003340100108C56004000F00040F5
:202FC00048810300E40E0040580200104096024000E001400400FA0510B568B101280AD16B
:202FE0000C4C2369A07033B10CCB0120226198472369002BF8D110BD064CA3680122627000
:20300000002BF8D00CCB0020A2609847A368002BF8D110BDEC05002010B50B4C237882B01F
:2030200013B1852002B010BD08486360A3602361E360FFF791F90190FFF79CF90198012372
:20304000237002B010BD00BFEC050020D92F000038B5154DAB78044673B110B14368012019
:2030600098470020FFF766F9EB680133EB600020BDE83840FFF766B903F0FF00FFF75AF99D
:2030800064B12A6942B1944208D0134601E09C4204D01B68002BFAD122602C61EB68002BF5
:2030A000E2D1FFF77DF9DFE7EC05002038B5154D6B78044673B110B14368002098470020EF
:2030C000FFF738F96B6801336B600020BDE83840FFF738B903F0FF00FFF72CF964B1AA689F
:2030E00042B1944208D0134601E09C4204D01B68002BFAD12260AC606B68002BE2D1FFF795
:2031000067F9DFE7EC05002038B5084C0020FFF711F96368013B6360656815B9FFF76AF959
:2031200065700020BDE83840FFF70CB9EC05002010B5084C23780BB1852010BD064B002856
:2031400008BF1846FFF7A4FD0028F6D10123237010BD00BFC9280020D82C010010B504465C
:20316000FFF7CEFDFFF7D4FD2046FFF7B7FDFFF7BFFD002010BD00BF0378052B02D0094B88
:203180001B681847084BD3F88424D3F8803413F0FF0FF4D1054BD2B2052A08BF1846014BBE
:2031A0001B6818470006002000700240F42C0100014B02481B68184700060020F82C010071
:2031C00001280BD006D3022803D1064B06481B6818477047034B05481B681847014B0448C7
:2031E0001B68184700060020F02C0100E82C0100EC2C01002DE9F04F87B006AE00250446CD
:20320000894692469B4646F8105DA84601E008F10108626801235568214600223046A84711
:203220000028F4D18DF806000490B8F1000F28D00546064662680123576821460DF1060221
:2032400004A8B84762680123576821460DF1070204A8B8479DF807304B454FF000022146F9
:2032600004A803D1AA4510D00135EDB29DF806306768023B7F68B8479DF806301E44B0454B
:20328000D8D8052007B0BDE8F08F109A9DF8063013608BF800308BF801906168023B4D6814
:2032A0000BF102022146A847002007B0BDE8F08F2DE9F041054682B03A4803F039F9044608
:2032C00018B1204602B0BDE8F081374A374B384E147021464822374834601C600FF0D8FBB8
:2032E0002146482234480FF0D3FB002D54D095E80700324B83E8070000284AD00020FFF798
:2033000017FF18B1852801D0FEF7EAFF2C4EDFF8A8E096F808807768DFF898C0032303FB51
:20332000086808F1090806F10901414521D001B34D78DDB18C780B1918BF012202D115E0AA
:20334000CB1813D01B7813F0800F03F00F0314BF0CEBC3030EEBC3031E6038685860D0B2D6
:20336000A84202EB040302F10102E9D303314145DDD102A90B2301F8043D11483B68984767
:20338000044600289DD003F01BF9204602B0BDE8F0810C4A1A60B1E7084B0A4A5D601D72BE
:2033A0001A60ABE779310000CB280020A00600209C0600200C0600205406002000060020EA
:2033C000242D01007D37000010B503F00FFA08B9082010BD03F012FA04460028F8D10448EA
:2033E000FFF7BCFE00B910BDFEF77AFF204610BDE42C010003F0EEB803F0DEBF4FF08043BA
:2034000003E0D3F83824D10707D5D3F838249207F7D5024B02481B6818477047000600200C
:20342000FC2C010000B583B002A8822300F8043D024B1B68984703B05DF804FB0006002017
:20344000F0B590F808E0354D354F032606FB0E0600F1090C093661468E4283B01AD0D1B1B8
:203460004C78002211E08B781344D9420FD0CB5C13F0800F03F00F0314BF07EBC30305EBE8
:20348000C30301321B68002B34D1A242EBD103318E42E4D10021214C214DCAB272452CD2FA
:2034A00002EB42021CEB020227D0537803B39378D31818BF012705D11AE093783B44D3181E
:2034C00014D037461B7813F0800F03F00F0314BF05EBC30304EBC3031860466836685E60A1
:2034E00092F801E07B1CBE45DEB2E6D890F808E00131D2E7112003B0F0BD0A4A13681BB1F2
:203500001A681368002BFBD102A910600B2201F8042D43681B689847EDE700BF540600202B
:203520000C0600209C060020024B1878003018BF01207047CA28002000F00F03072B10B5D0
:20354000044604D803F0FAFA204603F02BFE2046BDE8104003F0CEBD04F00AB8014B186881
:20356000704700BF9C06002070B4114B1E68A6B1357A75B1737A834206F1090210D000232A
:2035800003E012F8034F84420BD00133DBB29D42F7D133681E68002EEAD1304670BC704780
:2035A00000230029F9D030460B7070BC704700BF9C060020436811461B68184700F00F03BB
:2035C000082B01D91020704702064CBF044A054A02EBC30318680028F4D043681B6818479B
:2035E0000C0600205406002038B5094B1C6805461CB90AE023681C683CB1636829461B6897
:20360000204698470628F5D038BD062038BD00BF9C06002038B50D46044603F05DF908B94D
:20362000082038BD044B1B78022BF9D129462046BDE8384003F060B9CB28002038B50D4643
:20364000044603F049F908B9082038BD044B1B78022BF9D129462046BDE8384003F0E2B9B4
:20366000CB28002070B543689B6804460E4615461BB19847062800D070BD0DB1072070BD83
:20368000237AB34217D906EB46060934344466789EB12B46324609E0A37862190135D05CBF
:2036A000FFF74AFFEBB2B34207D262789A42F3D800231B78FFDE6B78FFDE002070BD00BF80
:2036C00070B54368DB6804460D4603B19847237AAB4219D9093405EB450525446E7896B11E
:2036E00000242346324609E0AB782A190134D05C03F03EFFE3B29E4205D96A789A42F3D809
:2037000000231B78FFDE70BD00235B78FFDE00BF43681B6903B118471846704770B50A4B86
:203720001D6885B12E7A4EB100242146013400222846FFF797FFE1B2B142F7D32B681D68E3
:20374000002DEFD170BD70BD9C06002070B50A4B1D687DB12E7A46B1002421460134284666
:20376000FFF7AEFFE1B2B142F8D32B681D68002DF0D170BD70BD00BF9C06002070B50378D4
:203780000446852B00F28D80DFE813F00402B6018C0020024E02B100B8008B00D100E40002
:2037A000F7008B008B008B008B0019018B008B008B008B008B008B008B008B008B008B005E
:2037C0008B008B008B008B008B008B008B008B008B008B008B008B008B008B008B008B0039
:2037E0008B008B008B008B008B008B008B008B008B008B008B008B008B008B008B008B0019
:203800008B008B008B008B008B008B008B008B008B008B008B008B008B008B008B008B00F8
:203820008B008B008B008B008B008B008B008B008B008B008B008B008B008B008B008B00D8
:203840008B008B008B008B008B008B008B008B008B008B008B008B008B008B008B008B00B8
:203860008B008B008B008B008B008B008B008B008B008B008B008B008B008B008B008B0098
:203880008B008B008B008B008B008B000A012D0165018600E701B1008E4D2B78032B00F08C
:2038A0000B8270BD8B4D2A78931EDBB2062B05D88949CB5C13B1FFF727FC2A78022A00F0F4
:2038C000EE81082A00F0EB81844B5B6803222A700BB102209847824B1D6845B16B68284654
:2038E0001B68214698472B681D68002DF6D17D4B214693E80500BDE8704010478278130685
:203900004CBF794B774B02F00F0203EBC20393E80500214690470028C3D0A07800F00F03CD
:20392000013B062BBDD8BDE8704003F0D9B86B4B5B680BB108209847694B1D68002DB0D08A
:203940006B6828461B68214698472B681D68002DF6D170BD614B5B680BB109209847604B46
:203960001D68002D9DD06B6828461B68214698472B681D68002DF6D170BD584B5B680BB1C3
:203980000A209847564B1D68002D8AD06B6828461B68214698472B681D68002DF6D170BD2E
:2039A0004C4C2378062B00F08081072B02D0052B7FF477AF02F070FF0223237070BD474B0D
:2039C0005B680BB10F209847454B1D68002D3FF468AF6B6828461B68214698472B681D68AC
:2039E000002DF6D170BD3F4B404993E8050090473B4B1C684CB13D4D636820461B68294688
:203A0000984723681C68002CF6D1344C63680BB10D209847FFF79AFE01F036FB344B1B6800
:203A2000002B00F0478101202A4D02F0ADFE2A78931EDBB2062B05D82749CB5C13B1FFF72F
:203A400063FB2A78022A00F06981082A00F0668101232B7070BD1F4DFFF778FE03F0A0FC04
:203A60002A78931EDBB2062B05D81B49CB5C13B1FFF74AFB2A78022A00F01481082A00F059
:203A80001181174B1C6800232B704CB1194E636820461B683146984723681C68002CF6D180
:203AA000104B144993E8050090470C4B5B680BB10E2098472B78023BDBB2062B3FF6F1AEA2
:203AC000054AD35C002B3FF4ECAEBDE87040FFF71BBB00BFCB280020DC2C0100000600204E
:203AE0009C060020540600200C060020002D0100A0060020042D0100984DFFF727FE01F041
:203B0000B9FA2A78931EDBB2062B00F2BB809449CB5C002B00F0B680022A03D0082A01D05D
:203B200002F0BAFE8F4B5B6802222A700BB1012098478D4B214693E8050090478B4B1D68D3
:203B4000002D3FF4AEAE6B6828461B68214698472B681D68002DF6D170BD804D2B78032BC8
:203B600000F0C58002F054FE00283FF49AAE2A78931EDBB2062B40F2E5807D48FFF796FA36
:203B80002A78022A00F0D680082A00F0D38006232B7070BD714B1B78032B00F0A480082BE7
:203BA00000F0A1806F4B5B680BB100209847714B1D68002D3FF475AE6B6828461B682146CD
:203BC00098472B685D68002DF6D170BD634D2B78082B5FD09A1ED2B2062A40F2A580644869
:203BE000FFF764FA2B78022B00F09B80082B00F0988005232B705B4B5B680BB10320984771
:203C0000594B214693E805009047584B1D68002D3FF447AE6B6828461B68214698472B6828
:203C20001D68002DF6D170BD4E4B5B680BB1032098474D4B504993E8050090474B4B1C6822
:203C40004CB14D4D636820461B682946984723681C68002CF6D1414D2B78062B17D0082B4D
:203C60000DD09A1ED2B2062A67D94148FFF71EFA2B78022B03D0082B01D002F00DFE02235B
:203C80002B7070BD3A48FFF711FA2A7844E707232B7070BD02232B7002F008FEABE702F0DE
:203CA000F1FD11E602F0EEFDEBE602F0F5FD0823237070BD207AB7E603F0AEFB00283FF474
:203CC000F0AD2A78931EDBB2062B05D82449CB5C13B1FFF719FA2A78022A39D0082A37D0E8
:203CE00004232B7070BD2548FFF748FD5AE703F093FB00283FF436AF2A78931EDBB2062B1A
:203D000005D81749CB5C13B1FFF7FEF92A78022A21D0082A1FD004232B7023E702F0B2FD41
:203D200096E602F0AFFD64E70D498A5C002A7FF45AAF54E702F0A6FD29E709498A5C002AFA
:203D400097D192E70649CB5C002B7FF41AAF14E702F098FDC4E702F095FDDCE7CB2800201E
:203D6000DC2C010000060020540600209C060020F8000020A00600200C2D0100082D01008A
:203D80004360CA69934205D901F1280202608B67002070478A6902600B67CB610020704789
:203DA000F0B50468C04E0D7A3570B4F5517F00F0708358D940F25635AC4200F0C28300F259
:203DC000ED80B4F5537F00F0AF8340F2778140F25135AC4200F0D98300F20C8240F24F3587
:203DE000AC4200F04C84B4F5547F40F0018301240027002A00F078850579D555A3424FF0B6
:203E00000205057140F243842F4604F1010E022573451755057140F215840EF1010402F829
:203E20000E50A3424FF00505057140F23A842F4604F1010E242573451755057140F21A8464
:203E40000EF1010402F80E50A3424FF00605057140F22284671C15559F420D7D057180F04B
:203E60008F837C1CBBE140F2263E744500F03E8344D840F2163E744500F0138340F26B81FD
:203E800040F2193E744500F0CE8300F2578240F21737BC4200F05D83B4F5467F40F0A882BE
:203EA000002A00F0BB8505794FF0010E002700247345D555047140F2178435780EF10107B9
:203EC00002F80E40DFF8ECE100248EF80040A54240F2F9830924BB42047140F28E847D1CFB
:203EE000002A00F04A850479D455AB424FF00404047140F2528405F1010E2FE240F23335D2
:203F0000AC4200F0D982B4F54D7FC0F08280B4F54F7F00F0858340F2628240F24235AC4225
:203F200000F0558200F2248340F24135AC4240F05F8201240027002A00F096840579D55552
:203F4000A3424FF02405057140F24984AE46671C0025BB4202F804E0057140F2198407F1EB
:203F6000010E10247345D555047140F2FE8325460EF101070124BB4202F80E50047140F261
:203F8000E583254607EB040E05247345D555047140F2CD8325460EF10107A6E040F2723577
:203FA000AC4200F0C98240F2058140F28335AC4200F0B082B4F5617FC0F03C8240F289353F
:203FC000AC4200F0FC8140F28E35AC4200F0F781B4F5617F40F00C82002A00F03B8404799E
:203FE000012700255455314C0D7D24682478A54200F0C0838D7DA54200F0F683DFF8B8E0B9
:204000002B4D9EF800402D780134E4B28EF800403DE0B4F54B7F00F0C08200F2FD8040F2B9
:204020002735AC4200F00783B4F54A7F40F0E081002A00F01D851D4C90F804E02568002774
:20404000012402F807E02D780F7DAF4200F0C0838F7DAF4200F0F2830025A342057140F2F1
:20406000E481671C0AB105791555104C91F814E024682578AE4500F0F681DFF834C0DFF8B7
:2040800038E065788CF8005000248EF80040AC42C0F0B281DFF81CE035789EF80040013411
:2040A000E4B28EF8004012E7CE280020A4060020CC280020CD280020CF28002040F24935DB
:2040C000AC4200F0F38200F2298140F24535AC4200F08382B4F5527F40F08A81002A00F093
:2040E000AF84057901274FF0000E2424BB4202F80E50047140F20C83254607F1010E012430
:204100007345D555047140F2FE8225460EEB04070324BB4202F80E50047140F2EF827D1CFA
:20412000D455AB428F7D077140F2D98205F1010E042473455755047140F2C08225460EF174
:2041400001072424BB4202F80E50047140F2408225467C1C51E640F21337BC4200F0B88273
:20416000B4F5457F6AD2002C00F0478240F21237BC4240F03D81002A00F012840479147099
:20418000012B4FF00B04047140F2F28302250127D4559D420F7D077180F0E28205F1010E55
:2041A000022473455755047140F2CB8225460EF1010751E040F25935AC4200F0488268D836
:2041C00040F25735AC4200F0CC81B4F5567F40F00F8101240027002A00F0AC830579D5557B
:2041E0009C428D7D057180F03982671C1555CB4C246842E740F25235AC4200F0088240F22A
:204200005535AC4240F0F480002A00F0388407794FF0010E00240DE640F22D35AC4200F055
:20422000228240F22E35AC4240F0E280002A00F0198400270579D55501240DE700F0D581E0
:2042400040F21537BC4240F0D380002A00F0FE83057901274FF0000E0224BB4202F80E5056
:20426000047140F25F82254607F1010E02247345D555047140F251820EF1010702F80E4073
:20428000BB424C7E047140F23482254607F1010E0DE640F26D35AC4200F0978140F26E35F6
:2042A000AC4240F0A580002A00F0E7830479012700255455994D9A4C2D68247895F801E059
:2042C000A64540F2AA8095F802E02C449F4214F80E40047180F0D8807C1C1AB190F804E071
:2042E00002F807E02D780F7DAF4200F05B828F7DAF4200F08C824025A342057140F2A980D8
:20430000651C002A00F08E8207791755AB424FF00004047140F2A2806F1C63E640F24A3588
:20432000AC4200F0E78040F24B35AC4260D1002A00F08883047901250027F1E6B4F5487F31
:2043400000F0B7802F4640F22135AC4250D1002A00F08B8304794FF0010E002554550F7AE0
:20436000704C2478A7425BD904EB440501F109046A4F14F805C080F804C02C4473453C6007
:2043800040F201820EF10104002A00F0DD82057902F80E50A3424FF00005057140F2DB81E8
:2043A000671CDFF878E11555DEF80050BB4295F801E080F804E040F2BF817C1C41E601279A
:2043C0000024002A3FF41AAE0579155516E6002A00F02E8390F804E001270024B8E5B4F5E7
:2043E0004D7F00F08F8040F23535AC423FF41EAF002303601846F0BD0724BB42047139D928
:204400007D1C002A00F029820479D4559D424FF00504047133D26F1C4BE700231B78FFDEA7
:204420003E4A002313601B78FFDE4FF44F7303600120F0BD40F27735AC4202D0B4F55F7F93
:20444000D6D101240025002A3FF455AF0779575551E740F2833303600120F0BD4FF4617376
:2044600003600120F0BD0524BB42047140F2ED817C1C60E540F26D3303600120F0BD40F2BE
:204480006E3303600120F0BD40F2723303600120F0BD002A00F0CA82057901274FF0000EE9
:2044A00068E5002A00F0BC8205794FF0010E0027DCE60125002713E501250024002A00F0F9
:2044C0007981077917554FF0000EAB4280F804E040F2AF816F1C0024BB4202F805E00471FE
:2044E00040F271812546D5557C1CB5E501244FF0000E49E7002A00F0AD82057901274FF001
:20450000000E05E6002A00F0A78290F804E001270025E0E701250024F3E600BFA406002033
:20452000CF280020CD280020002A00F08D8207794FF0010E0025FBE5B94C00272568012475
:20454000CBE601244FF0000E002A00F0E781057978E4002A00F06682047901274FF0000EE8
:204560008CE6002A00F0948205790127002472E4002A00F05F8205794FF0010E0027F0E4B7
:204580004FF4567303600120F0BD002A00F0798207794FF0010E002439E401250024002A46
:2045A00000F0298207791755AB424FF00204047140F228816F1C5455BB424C7E047191D819
:2045C00040F22E3303600120F0BD0125002718E74FF4547303600120F0BD002A00F03882BC
:2045E00005794FF0010E0027CEE4002A00F01C8207794FF0010E0025D2E508240471002BE8
:204600007FF4B9AD40F2123303600120F0BD01244FF0000E002A00F074810579FFF7FFBB6A
:20462000012700241EE5002A00F08B81047901274FF0000E44E4002A00F0008205790127A9
:204640000024AEE640F2523303600120F0BD002A00F01B82057901270024C7E540F25933CF
:2046600003600120F0BD002A00F0E681047901270025A0E740F2563303600120F0BD002A21
:2046800000F00182057901274FF0000E59E540F2513303600120F0BD40F25733036001204F
:2046A000F0BD40F2553303600120F0BD002A00F0D78105794FF0010E002720E540F24F3344
:2046C00003600120F0BD40F2993303600120F0BD002A00F0C38104790125002758E54FF4D2
:2046E000537303600120F0BD40F2193303600120F0BD4FF4467303600120F0BD40F24B3337
:2047000003600120F0BD40F24A3303600120F0BD40F2493303600120F0BD40F217330360CA
:204720000120F0BD40F2163303600120F0BD4FF4527303600120F0BD4FF44A730360012042
:20474000F0BD40F2153303600120F0BD40F2453303600120F0BD40F2273303600120F0BD69
:204760004FF4457303600120F0BD4FF4517303600120F0BD0C6ABB422478047140F2F380AC
:204780003C4601371DE640F2263303600120F0BD40F2433303600120F0BD40F221330360DE
:2047A0000120F0BD0325A342057140F2EF802546013448E6AB4202713BD96C1C0025A34233
:2047C000057100F2238140F2353303600120F0BD0225A342057140F2DE80651CDFE640F278
:2047E000423303600120F0BD0024BB420471C7D840F28E3303600120F0BD4FF44873036059
:204800000120F0BD40F22D3303600120F0BD0225A3420571CBD84FF45F7303600120F0BD9C
:20482000A4060020AB4202717FF618AE6F1CFFF7DABB4FF44D7303600120F0BD0A25A342B5
:20484000057140F2E680651C38E640F2413303600120F0BD0127FFF7C6BB05249D420471B8
:20486000BFF40DAE6F1C25E52425A3420571B6D901340025A34205718AD901341025A3429B
:2048800005717FF672AF01340125A34205717FF65DAF2C440525A34205717FF648AF01343F
:2048A0002425A34205717FF633AF01340125A34205717FF628AF2C440325A34205717FF693
:2048C0001DAF01348D7D0571A3427FF608AF01340425A34205717FF6F1AE671C2425BB42B0
:2048E00005717FF675AE02340225A34205717FF6CEAE04F1010E0225734505717FF6A2AEE3
:204900002C4405259C420571BFF4CBAE04F1010E2425734505717FF6ADAE02340625A342EC
:2049200005717FF6B9AE671C0D7D0571BB427FF627AE02348D7D05719C42BFF48FAE671C54
:2049400055E40127FFF7BEBAA34202717FF603AF0134504D2D68A3426F7807717FF6ECAE4F
:204960000134FFF770BB40F2893303600120F0BD40F2133303600120F0BD0424AB4204718F
:204980007FF60BAF05F1010E0F7AE9E440F2773303600120F0BD4FF44B7303600120F0BD4E
:2049A0000B24012B0471E3D902240F7D0771A3427FF6D6AE01340227A34207717FF6C1AEC4
:2049C00001340227A34207717FF6ACAE01340227A34207717FF6A1AE01344F7E0771A3426F
:2049E0007FF687AE01340027A34207717FF67CAE671CFFF767BA0224AB4204717FF602AF6D
:204A00006C1C4D7E0571A3427FF6DAAD0134FFF723BB40F2333303600120F0BD0124E2E72C
:204A20000124D4E70124D8E70124C4E701242BE701241EE7012421E70124E2E7012488E7D2
:204A400001242DE701243DE7012441E70124B8E701241FE701242FE70124AFE60124A4E7F3
:204A6000012423E70124FFF7F7BA4FF0010E77E4084D01242D68FFF7E6BA01271AE414466D
:204A800044E7144635E7002427E70127FFF7AFBB002448E7A40600204360CA69934205D915
:204AA00001F12802026000208B6770478A6910B40260C8698C690A6FC01A1C441A44C86136
:204AC00000308C6118BF01200A675DF8044B704708B1032070470B681A7B202A01D0062019
:204AE000704710B50722044603F10E0103F118000DF0E5FF204610BD2DE9F0430B7889B09F
:204B00000D4606460E2B43D8DFE803F03D083D3D421A47424208423D3D3D3D000368002435
:204B200003F134025A671C845C62DC629C67DC67C3F88040C3F88440204609B0BDE8F08377
:204B40004B78DA0940F096805B09012B20D18B780768202B6CD0222B1AD1B1F80730BBB963
:204B6000B1F8033097F820203B8402F0010203F001039A4299B206D0002900F03581C369E7
:204B80000BB1022198470024204609B0BDE8F0830624204609B0BDE8F083037A89788BB1E1
:204BA000827A093082B1F27A825C8A42EBD00A0674D4EA78012AE6D008D3032AE3D003243F
:204BC000BAE700235B78FFDE1378FFDE3568012B05F10C00F5D9727B012A06F10C0365D904
:204BE000B27B9749069005911344AA6A93F80190002A5ED1EB6AE96FAA67C5F88010EA6740
:204C0000002B00F0D58005F12C0393E8030005F1240383E803004846EA6205A9FEF70EFD6E
:204C20000446F369002B87D030460021984783E7B1F80720072AABD13B73B1F8073000243D
:204C4000DBB27B7320460E37069307940597FDF771FB204605A9FEF7DDFC044630B9794B25
:204C6000049603A9039300F007FD04460020FDF769FB61E7C3F34112002A6FD0012A87D165
:204C80008B78212B84D1B1F80720072A80D10168681C183100F002FA04464DE7EC78002CEE
:204CA0007ED0032C0CBF0024032445E700231B78FFDED5F88440686A05F1340EA24228BF3C
:204CC00022467146904677460DF0F9FEEA6FE96AA4EB080307EB080E42440020AB67C5F86B
:204CE00074E0C5F88020E86700297BD005F12C0797E8030005F124044FF0000884E80300C1
:204D0000C5F82C80002B56D0AA6A9A420ED95BE097E8030084E80300AB6FC5F82C80002B28
:204D200049D0AA6A9A424FD8D5F874E0686A71460DF0C5FEA96AAA6F6B6FC5F880100B4437
:204D4000521AAA676B67F36913B1002130469847EB6A002BDCD16B62002462E703F01F03F2
:204D6000012B7FF415AF8C78062C7FF411AF05A8039200F095FC0DF10C0E0746EA7829793B
:204D8000CDF800E030463B46FEF734FA05283FF4D3AE3946681C039A00F080F90446CBE66F
:204DA000F369002B3FF4EFAE304601219847C3E600246C6235E76B6A002BCDD0484605A995
:204DC000FEF73CFC04462CE71A46696F686A0DF076FEA96FAA6A6B6AE967521A0B44AA62B6
:204DE0006B62E9E70023B6E7C3690BB103219847337A012B7FF6E5AE737B06F10C04002B6A
:204E00003FF455AFB37BE05C02F030FB337A012B7FF6D7AE737B012B7FF648AFB37B1C44ED
:204E2000607802F023FB002407F134037C62FC62BC67FC67C7F88040C7F884407B677BE630
:204E4000994A0000D14A000003681B8CDB0701D408207047037A012B16D910B5437B84B05D
:204E600000F10C040BB91B78FFDE0B46817B605C019391060CBF0124002401A902920394E0
:204E8000FEF7C8FB04B010BD00235B78FFDE00BF0368D3F880007047F0B50468238CDB0738
:204EA00083B003D40824204603B0F0BD0546002016460F46FDF73EFAA26F42B9636AC3B161
:204EC00011240020FDF73EFA204603B0F0BD964228BF16463246616F38460DF0F0FDA36FAE
:204EE000626FC4F880609B1B3244A36762670024E7E76762A6622A7A012A13D9697B0129BA
:204F000005F10C0210D9AB7B0849009113440C34587801946946FEF791FB002814BF04462B
:204F20009224CEE75B78FFDE1B78FFDE813D0000002070472DE9F04F4B6887B0002B7DD09A
:204F40000C4615460392029001F0C6FDE668AE4228BF2E468346002E00F087804FF0000AF9
:204F60005746D1464FF00108CDF804A0A3686168B3429A4628BFB24601B352460BEB0700FB
:204F80000DF09DFDA268E368C4F80490A2EB0A02A3EB0A03A6EB0A065744A260E3607AB1F5
:204FA000002B08BF4FF00008002EDFD1029AC2F800B05760404607B0BDE8F08F2BBBE3688B
:204FC000019A22B95BB99846002ECFD1EEE7226812681268226001220192002BF3D0216899
:204FE000002939D0CDF8109003E0A36821680133A3604B6800225D6804A80123A8470028EB
:20500000F3D12061002EB1D1D0E72046534650F8101B4A6855680BEB0702A847A268E368C0
:20502000A2EB0A02A3EB0A03A6EB0A065744A260E360002ACBD001220192B1E70B681B68B2
:205040001B68002B7FF47CAF8B68002B7FF478AF036043609846ADE76160002FA6D0039BD0
:20506000BB4288BF4FF00008A0E737464FF001089CE700BF08B50020FEF75EFA8020BDE8A8
:205080000840FEF759BA00BF08B50020FEF764FA8020BDE80840FEF75FBA00BF70B5C38807
:2050A00093421D4628BF1546934284B00E461FD800220020039201960295FDF73BF901A94B
:2050C0008020FEF7A7FA044628B10020FDF73AF9204604B070BD01F0DDFD802818BF10246B
:2050E000F3D1094A094B92E8030083E80300ECE78020144601F0E0FBB4FBF0F303FB1042DF
:20510000B2FA82F25209D4E76C2D0100CC0600202DE9F04F0B78062B87B07CD010D90D2B20
:2051200069D02AD80B2B06D00C2B2FD1A84A1378002B40F08E800024204607B0BDE8F08FA6
:20514000022BF8D045D9032B25D0052B1ED10DF10D008DF80C3001F001FD9DF80D209D4D93
:20516000002102F01F032960032B00F2B480DFE813F0B600CF00AA009B000E2B19D0852BB7
:2051800004D1934B1A78032A00F0F4800624204607B0BDE8F08F904800F0E6FA0028CAD064
:2051A0008E4B01221A60BFF36F8FBFF34F8F0024C2E7874B1A78012ABDD0894989480A782B
:2051C000012422F002021C700A700024FEF7D6FAB2E7012BDAD17E4B1A78032AD6D080493E
:2051E00080480A78032422F002021C700A700624FEF7C4FAA0E74FF08043D3F8383413F082
:20520000010F734B1A7821D0022A94D0744975480A780224D5E7C87803280D46B6D06D4ED0
:205220003368002B00F0988000223260716898470446002850D13368002B00F08F80AB78B9
:20524000002B7FF478AF01F0AFFC75E7012AB4D171E7634C63482178002321F002012170CE
:2052600013701C46FEF78AFA66E79DF80E10062900F0F080082900F0DB80A9B95A4C022299
:2052800020460DF005FC564B1B78980703D5237843F0020323700DF10D0002225249FFF7D9
:2052A000FDFE0446062C03D103A8FEF79DF9044694B92C68002C5AD001F0ECFC04460028A1
:2052C0007FF439AFBFE79DF81100010759D112F0600F00F08F80062401F0D2FC2CE7C2F3D4
:2052E0004114002CE0D1D209BFD19DF80E30032B50D0092B5CD0012BD6D1BDF80F30012B9D
:20530000D2D1FEF711F9002840F091810F24E3E701A99DF81100FEF727F9064678B303AAFB
:205320009DF80410FEF746F906280446C0D19DF80D3013F0600FCFD1254A9DF80410127801
:20534000DF099DF80E3040F0B1800B2BC4D1052A00F073810824BFE70E24BDE7234B1B68BA
:20536000082B04D1224B1B68002B3FF4E4AE01F07DFCE1E61A491B480A78042433E7102456
:20538000AAE703A9FEF71AF90628044690D19DF80D209CE7BDF80F30012B85D1FEF7C4F883
:2053A0000028B3D00E4A137843F00203137080E7074C2378043B012BCCD89DF80F30002B41
:2053C00000F02481012B00F01581072484E700BFD0280020CC060020D40600205C7002401F
:2053E000D1280020342D0100D806002030010010340100109DF80E20964B9DF811401B7891
:20540000012A3DD067D3032A7FF465AF04F00F02072A3FF660AFBDF80F1000297FF45BAF72
:20542000052B01D0002A95D1204601F059FB40E788490978052900F0C28004297FF434AFD4
:20544000854A14700DF10D0001228349FFF726FE044627E79DF81020022A63D0032A4BD021
:20546000012A7FF421AFBDF81330002B3FF421AF0DF10D0012227949FFF710FE044611E751
:2054800004F00F02072A3FF626AFBDF80F1000297FF421AF052B02D0002A7FF45BAF20467D
:2054A00001F04CFB204601F07DFE02E7002B00F089800A2B7FF410AF052A7FF44BAF30465C
:2054C000FEF726F964493A4608700DF10D00FFF7E5FD0446ECE6052B02D023077FF43AAF8C
:2054E000204601F009FB5C49022208800DF10D00FFF7D4FD0446DBE6BDF81330002B3FF4CD
:20550000D8AEBDF811109DF80F0000F01BF9014600283FF4C9AE0DF10D000A78FFF7BEFD30
:205520000446BFE6BDF81320002A3FF4C2AE092A28BF09229146FEF711F8A34606464FF039
:20554000090AAEB1CDF804B0002700E0013772680123D2F804803146002201A8C047002864
:20556000F4D1337A326823441668BA44DCB2E8E7394E3B4930464A460DF0A1FA3471A6F8F3
:2055800002A0FDF7D1FF18B1F37943F02003F371FDF7E4FF334BBDF81320186000205E6023
:2055A000C3F80890DA60FCF7C5FE2F498020FEF745F8044698B10020FCF7C4FE72E6264B2D
:2055C0001A703FE7052A7FF4C5AE234C0DF10D00214623800222FFF761FD044668E601F081
:2055E00059FB802805BF214B93E80300102485E80300E0E7FEF792F82378052B3FF459AE12
:2056000005231B482370FEF7B9F852E6FEF79EF82378042B3FF44DAE164A1548137804219E
:2056200023F0020313702170FEF7A8F841E6114A137823F0020313703BE6BDF80F30FF2BC2
:205640003FF6C3AE30469DF80F20FEF70BF804462EE600BFD0280020D8060020582D0100B9
:20566000382D0100B4060020742D01006C2D0100342D0100D128002038B504460D4601F0B8
:2056800009FBA04202D01023184638BD95E80300024A82E803000023184638BDCC0600202B
:2056A00008B1402303600148704700BFD806002070B54FF0805286B0D2F8A830D2F8A42012
:2056C00000926FEA83436FEA93439BB202A80A4A0A4E0D2105F0A8FF0DF10705002404E06B
:2056E00015F8013F06F8013F013402A80DF00CFA8442F5D306B070BD7C2D0100EF280020EB
:2057000010B50F4B53F8204023780BB9A01C10BD0020FFF7C5FF22787AB100230133DBB254
:2057200020F8132014F8012F002AF7D101335B00DBB243F44073038010BD40F20233FAE752
:20574000E42D010040B1052808D8054A105C28B1044B53F820300BB1FFF7D2BF00207047A1
:20576000FC2D0100E42D010000B5002350E800EF0EEA030240E8002191F0000FF6D170469B
:205780005DF804FB30B44C689C4208D2002545600968016093420CD0002030BC70474360B2
:2057A0000D6805600868E41A1844934281E81100F2D1201C18BF012030BC70474B689A42CD
:2057C00028BF1A4610B40C680460426048680B685DF8044B801A13444860003018BF0120BC
:2057E0000B6070474B689A4228BF1A4662B10B680360426048680B68801A13444860101C3E
:205800000B6018BF012070471346F1E710B582B002A800230121064A0193064C00F8041D08
:205820000549126823700B70904702B010BD00BF40080020D2280020D5280020704700BF68
:2058400000B583B00D4B0E4900228DF80420D3F82025ADF80620D3F8C0040A4A096813683C
:2058600000280CBF4FF480704FF00120034301A81360884703B05DF804FB00BF00700240F9
:20588000400800201C070020F8B50C4622C90A4F954228BF154606462A4638460DF00FF9C2
:2058A00075603760236860682B44401B60602360003018BF0120F8BD48080020F8B54C686E
:2058C000944228BF14460D4606465CB9046074606A682B68121B2344201C6A602B6018BF64
:2058E0000120F8BD034F0968384622460DF0E7F83760ECE74808002010B5244BD3F8004430
:20590000C3F8004482B0BFF36F8FBFF34F8FBFF36F8FBFF34F8FE1052AD4A2051CD46305F3
:2059200002D51B4B1A780AB902B010BD174C1948012100221A70C4F808150160BFF36F8FDA
:20594000BFF34F8F144B019202A8042100F8041D1B68984702B010BD02A8002303210E4AB3
:20596000019300F8041D0A4912680B709047D6E702A8002301930222074B00F8042D044A50
:205980001B68012111709847C7E700BF00700240D22800205870024040080020F0B5394A2F
:2059A0000126136806FA01F423431360030683B0054612D4344B1B681C4201D003B0F0BD79
:2059C000324B8DF8060006221B688DF807608DF8042001A8984703B0F0BD00F00F012C4B20
:2059E00033F8113003F1804303F51C331A68CAB100221A60BFF36F8FBFF34F8F254B80284C
:205A00001B6827D0082B08BF234B244E08BF1A60234A0B01D0180027807B3770032811D0BB
:205A2000D3587BB1184B1B681C40C7D1174B8DF8065006221B688DF807408DF8042001A82F
:205A40009847BBE7012303FA01F1C9430E4801F05FFEE7E7082B08BF0F4B104908BF1A6046
:205A6000104B93F89E200020032A087003D0D3F89030002BD6D16FF00101034801F048FEAA
:205A8000D0E700BF1C0700201807002040080020102E0100300100101C7C0240D328002031
:205AA000B007002020070020054B187810F0800F14BF0021102100F00F031944FFF76EBFB2
:205AC000D52800202DE9F04FDFF808A3DFF80C83DAF80030D8F80020134089B000F09B80E3
:205AE00013F0012400F09A8094FAA4F4002C40F09A804FF0100BAC4D01940294CDF80CB0D9
:205B00004FF0FF3904F59473A84A52F82370AA8969682E683B4606A8B047069B1BB1079B70
:205B20009F4200F20681029E02944F46002800F0C5809F4B1B68082B00F0C680D8F800201D
:205B4000AB6807993A400B44C8F80020994AAB60BBF1000F4FF001031370069AC0F20481A3
:205B6000072E00F2B580029B03EB83039B0003F1804303F51C33C3F80027C3F804178C4B90
:205B80001B68082B40F0AE808B4B1B68002B40F0A980BBF1000FB4BF0423282303EB8606FA
:205BA000864A8749019B874C874FF6B2B4BF9146894606F1804609EB430906F51C364FF0B6
:205BC00000080125C4F80080BFF36F8FBFF34F8F3560BFF36F8FBFF34F8F022001F080FDB6
:205BE0002368002BEED01E2001F07AFD3B689A0605D4022001F074FD3B689B06F9D50120B8
:205C000001F06EFDB9F8003003F1804303F51C331B68002BD5D009B0BDE8F08F93FAA3F4F5
:205C2000002C3FF466AFB4FA84F40F2C28D9A4F11003DBB24FF001095B4A039309FA04F9D5
:205C4000072B1846029301931C4602EB03154FFA83FB6FEA09097FF655AF544BD3F8C074DB
:205C6000F9037FF554AF029EAA89029069682C6806A800234F46A04700287FF45AAF1DE0F9
:205C800004F00F06DFF858914FEA061A09EB0A054FF0010E0EFA04FE06A8AA89696859F884
:205CA0000A306FEA0E07984764F07F0B0296019600287FF43EAF49F80A003AE73C4B28604D
:205CC0001B68082B7FF43AAF404B82221A6035E7364BC3F8A027C3F8A417354B1B68082B3E
:205CE0003FF452AF282303EB8603DBB203F1804303F51C3301221A60BFF36F8FBFF34F8F46
:205D00002F4A2E4B324913EA2B0338BF1346019A33F8122002F1804202F51C3203E00B6853
:205D2000002B7FF478AF1368002BF8D009B0BDE8F08F022449462748AC7301F0E9FC264BC9
:205D40009DF80C101B688DF8174006228DF814208DF8161005A89847DAF80030D8F8002029
:205D600013407FF4BDAE56E7072E16D8029B03EB83039B0003F1804303F51C33C3F8002607
:205D8000C3F804160A4B1B68082B04D10A4B1B68002B3FF4FEAE0423A5E7044BC3F8A026E9
:205DA000C3F8A416EEE700BF200700200070024030010010D328002034010010102E010001
:205DC000302E010004710240747402401C7C02400071024018070020400800201C0700200C
:205DE000B007002070B5214BD3F86C44C3F86C44BFF36F8FBFF34F8F1D4B1B68082B24D003
:205E0000B4B1012694FAA4F2B2FA82F520211020EBB2BAB10F2DA3F1100006FA03F20BDD79
:205E2000C0B2D24314401946FFF7B8FD002CE9D1104B1B78B3B170BD06FA03F2D24343F0DB
:205E40008000EFE7FFF7AAFDDCE70B4B1B68002BD6D10A4A136803F0011123F00113116075
:205E60001C43CDE7BDE87040FFF72CBE0070024030010010D328002034010010440800201B
:205E800030B5194B1B68082B83B00DD0174B184C93F85E200021032A217009D01D6D8DB1A4
:205EA000FFF710FE03B030BD124B00221A60EDE76FF40011104801F02BFC2378002BEFD008
:205EC00003B030BD6FF400110B4801F021FC0B4B8DF80750062105221B688DF804108DF82C
:205EE000062001A89847E8E73001001020070020D32800201C7C0240180700204008002001
:205F0000154B1B68082B0ED0144B154993F88E200020032A08700AD010B5D3F8804082B076
:205F200034B102B010BD0F4B00221A60ECE770476FF080710C4801F0EBFB0C4B8DF80740DF
:205F4000062108221B688DF804108DF8062001A8984702B010BD00BF3001001020070020DB
:205F6000D32800201C7C0240180700204008002010B5184B1B68082B82B00CD0164B1749D8
:205F800093F81E210020032A087008D0D3F8104164B102B010BD124B00221A60EEE76FF4B9
:205FA0008071104801F0B4FB02B010BD6FF480710C4801F0ADFB0C4B8DF807400621882244
:205FC0001B688DF804108DF8062001A8984702B010BD00BF3001001020070020D328002091
:205FE0001C7C024018070020400800200C4B1B68082B0BD00B4B0C4993F89E200020032AF7
:20600000087007D0D3F8903023B17047074B00221A60EFE76FF00101054801F079BB00BFC5
:206020003001001020070020D32800201C7C0240180700200C4B1B68082B10D00B4B0C490C
:2060400093F80E210020032A087003D0D3F8003103B170476FF08001064801F059BB064B03
:2060600000221A60EAE700BF3001001020070020D3280020180700201C7C02400C4B1B685E
:20608000082B10D00B4B0C4993F8AE200020032A087003D0D3F8A03003B170476FF00201E9
:2060A000064801F035BB064B00221A60EAE700BF3001001020070020D32800201807002052
:2060C0001C7C02400C4B1B68082B10D00B4B0C4993F8BE200020032A087003D0D3F8B030A2
:2060E00003B170476FF00401064801F011BB064B00221A60EAE700BF3001001020070020C1
:20610000D3280020180700201C7C02400C4B1B68082B10D00B4B0C4993F8CE200020032AED
:20612000087003D0D3F8C03003B170476FF00801064801F0EDBA064B00221A60EAE700BF23
:206140003001001020070020D3280020180700201C7C02400C4B1B68082B10D00B4B0C49EB
:2061600093F8DE200020032A087003D0D3F8D03003B170476FF01001064801F0C9BA064B45
:2061800000221A60EAE700BF3001001020070020D3280020180700201C7C02400C4B1B683D
:2061A000082B10D00B4B0C4993F8EE200020032A087003D0D3F8E03003B170476FF020012A
:2061C000064801F0A5BA064B00221A60EAE700BF3001001020070020D328002018070020C2
:2061E0001C7C02400C4B1B68082B10D00B4B0C4993F8FE200020032A087003D0D3F8F03001
:2062000003B170476FF04001064801F081BA064B00221A60EAE700BF3001001020070020F4
:20622000D3280020180700201C7C024030B5194B1B68082B83B00CD0174B184C9A7F00211C
:20624000032A217009D01D698DB1FFF73BFC03B030BD134B00221A60EEE76FF4003111485A
:2062600001F056FA2378002BEFD003B030BD6FF400310C4801F04CFA0B4B8DF80750062140
:2062800001221B688DF804108DF8062001A89847E8E700BF3001001020070020D32800205B
:2062A0001C7C0240180700204008002030B5194B1B68082B83B00DD0174B184C93F86E206F
:2062C0000021032A217009D01D6E8DB1FFF7FAFB03B030BD124B00221A60EDE76FF4800101
:2062E000104801F015FA2378002BEFD003B030BD6FF480010B4801F00BFA0B4A8DF80750C3
:20630000062312688DF804308DF8063001A89047E9E700BF3001001020070020D3280020B4
:206320001C7C0240180700204008002030B5194B1B68082B83B00DD0174B184C93F87E20DE
:206340000021032A217009D01D6F8DB1FFF7BAFB03B030BD124B00221A60EDE76FF400013F
:20636000104801F0D5F92378002BEFD003B030BD6FF400010B4801F0CBF90B4B8DF8075043
:20638000062107221B688DF804108DF8062001A89847E8E73001001020070020D3280020EC
:2063A0001C7C0240180700204008002030B5194B1B68082B83B00DD0174B184C93F82E20AE
:2063C0000021032A217009D01D6A8DB1FFF77AFB03B030BD124B00221A60EDE76FF4802164
:2063E000104801F095F92378002BEFD003B030BD6FF480210B4801F08BF90B4B8DF80750A3
:20640000062102221B688DF804108DF8062001A89847E8E73001001020070020D328002070
:206420001C7C0240180700204008002030B5194B1B68082B83B00DD0174B184C93F83E201D
:206440000021032A217009D01D6B8DB1FFF73AFB03B030BD124B00221A60EDE76FF40021A2
:20646000104801F055F92378002BEFD003B030BD6FF400210B4801F04BF90B4B8DF8075022
:20648000062103221B688DF804108DF8062001A89847E8E73001001020070020D3280020EF
:2064A0001C7C0240180700204008002030B51A4B1B68082B83B00DD0184B194C93F84E208A
:2064C0000021032A217009D01D6C8DB1FFF7FAFA03B030BD134B00221A60EDE76FF48011F1
:2064E000114801F015F92378002BEFD003B030BD6FF480110C4801F00BF90C4B8DF80750AF
:20650000042206211B688DF804108DF806200DEB02009847E7E700BF300100102007002079
:20652000D32800201C7C0240180700204008002070B4204D2A7812B1082070BC70471E4957
:206540001E4B086001262E7010461C46194640250132D2B2082AA1F89C5081F89E00C1F8EB
:206560009000C1F8980001F11001F1D14FF40071002284F81E01C4F81001C4F81801A4F8C6
:206580001C11402011460132D2B2082A988199731960996003F11003F5D14FF4007384F898
:2065A0008E10C4F88010C4F88810A4F88C30002070BC7047D4280020400800202007002077
:2065C0000249034A00230B601370704740080020D42800205E4B4FF4006270B5C3F8002485
:2065E000BFF36F8FBFF34F8F5A4B1B68082B4FD00D2B50D0564A0123C2F80035BFF36F8F26
:20660000BFF34F8FD2F800341B05FBD54FF40063C2F80034BFF36F8FBFF34F8F4D4B1B680D
:20662000082B6DD04A4A4C4D4C484A49002340F2FF148026C2F81C65C2F830352B6004603F
:206640000A68474D474C4849082A08BF474A4FF0020008BF136000233E4A2B7023700870BA
:206660001368082B02D00D2B04D070BD404B1B68002BFAD00020FBF75DFE3E4B1A6862B3D1
:206680003D4B00221A600020BDE87040FBF75ABE374B1B687BB10020FBF74CFE354B1A68C8
:2066A00032B3354B03221A600020FBF74BFE294B1B68082B9ED10020FBF73CFE2D4B1A689C
:2066C000002A3DD12D4949F27532C0201A6008601A600020FBF736FE8CE7274849F27531E5
:2066E0001960026019600020BDE87040FBF72ABE214949F2753203201A6008601A60D3E772
:206700000020FBF717FE1B4B1A68EAB91B4849F275311960026019600020FBF713FE0D4BB4
:206720001B68082B7FF47EAF1549164B40F2E370402208601A60BFF36F8FBFF34F8F71E7E3
:206740000E4BC0221A60C4E70C4B00221A60E3E70070024030010010180700201C070020A7
:20676000D3280020D5280020D42800201C7C02403401001000EC064014ED064014EC0640E7
:206780000078024004780240114B00221A70A8B9104B1B68082B13D00F49104B104AC3F85C
:2067A0000413C02182F82713802151600122C3F80425BFF36F8FBFF34F8F70470949ECE7B8
:2067C000094B05491A68074B002A08BF1946E4E7D2280020300100100714C001007002403F
:2067E00000E100E00714E00134010010024B1878003018BF01207047D4280020034B1878E1
:20680000012894BF00200120704700BFD428002010B50020FBF78EFD164B1B7803F0FF04DD
:2068200053B1154BD3F82C255AB1144A12680021082AC3F82C150AD00020FBF783FD2046D4
:2068400010BD14460020FBF77DFD204610BD03F58F2303F580631A681AB1094BC0221A60D0
:20686000EAE7074949F27532C0201A6008601A60E2E700BFD2280020007002403001001044
:2068800014EC0640024B034AC3F80823704700BF0070024004148001024B034AC3F80423F5
:2068A000704700BF0070024004148001014B00221A707047D2280020064B10F0800FA3F1DA
:2068C000900200F00F0008BF134603EB00139889704700BFB0070020064B010600F00F023F
:2068E0004CBFD3F81005D3F81405D04000F00100704700BF007002402DE9F0414FFA80F898
:20690000B8F1000F00F00F0407464FF00000B4BF064610260D46FBF70DFD54B9344B1B78CD
:20692000BB4206D010240020FBF70CFD2046BDE8F081304BDFF8E8E01B68DEF80070DB43B8
:20694000264401229BB202FA06F63B43334206D011240020FBF7F6FC2046BDE8F081B8F13E
:20696000000F23DB24B222012349244B2448885004EB440403EB840301EB020C95E80700C8
:206980003E43204DCEF800600024802683E80700CCF80430CCF808408CF80E400020C5F8F4
:2069A0000461FBF7CFFC2046BDE8F0812968164B164822B201F060414FEA021802EB4204FD
:2069C000B1F1005F03EB840300EB080C07D0AA68D20754BF0E4A0F4A40F80820CEE7AA6895
:2069E000D10754BF0C4A0D4A40F80820C6E700BFD52800201C070020200700206C290020D7
:206A00008557000000E100E000290020B007002089580000BD580000BD570000E557000073
:206A2000180700202DE9F04147B2002F00F00F0504464FF00000B4BF80464FF010080E4637
:206A4000FBF778FC55B91F4B1B78A34206D010240020FBF777FC2046BDE8F0811A4BDFF899
:206A600070E01868DEF80010C043A844012280B202FA08F2084310EA020406D011240020B0
:206A8000FBF760FC2046BDE8F0811048DFF844C02B01A0F1900510EA270738BF2F46F81803
:206AA0000A4384603168F9508023716841608473CEF800200020CCF80431FBF743FC204619
:206AC000BDE8F081D52800201C070020B00700201807002000E100E00048704748080020FA
:206AE000044B40F48070C3F81805BFF36F8FBFF34F8F70470070024000F00F03072B0BD88B
:206B000002060BD40B4A9B001A445068A0F10100B0FA80F0400970470020704703F5847316
:206B2000054A52F82300A0F10100B0FA80F04009704700BF4074024000700240064BC3F87A
:206B40000C05BFF34F8F40F48070C3F80C05BFF36F8FBFF34F8F70470070024010B508220C
:206B6000002104460BF094FF0E4BD3F880242270D3F884246270D3F88824D3F88C1442EA6F
:206B800001226280D3F89024D3F8941442EA0122A280D3F89824D3F89C3442EA0323E380B6
:206BA00010BD00BF00700240104B1B68082B07D00F4B01221A60BFF36F8FBFF34F8F7047C1
:206BC0000C4B1B68002BF3D1EFF3108372B6084A01211160BFF36F8FBFF34F8F1160BFF307
:206BE0006F8FBFF34F8F83F310887047300100104C7002403401001010B5164B1B68082BE2
:206C000082B00CD0144B15499A7B0020032A087009D01C686CB1FFF7C7FF02B010BD104BBF
:206C200000221A60EEE76FF480310E4800F070FDF3E76FF480310B4800F06AFD0A4B8DF8AA
:206C4000064006228DF807401B688DF8042001A89847E2E73001001020070020D3280020DA
:206C60001C7C02401807002040080020034B01221A60BFF36F8FBFF34F8F704750700240AF
:206C8000034B01221A60BFF36F8FBFF34F8F704754700240014B1878704700BFD52800209D
:206CA000F8B5264B1B68082B044622D00020FBF741FB14F0800F224814BF0022102204F05E
:206CC0000F04A118036801228A4023EA0203072C036009D804F594741A4B002243F8242000
:206CE000BFF36F8FBFF34F8F0020BDE8F840FBF729BB154B1D68002DD8D12846FBF71AFB51
:206D00000F4E12483268124F14F0800F18BF002104F00F0408BF102163180121994040F28F
:206D2000C57303EB440422EA010232603C60056003682846BDE8F840FBF704BB300100109B
:206D40001C070020007002403401001004780240007802402DE9F04F594C5A4FDFF870A1F6
:206D6000236897F80090DAF800205749DB439BB219F0800F83B043EA0203D1F8805421D1E0
:206D800009F00F0808F1100201269640334244D14E4E0DF1040805F080056FF001114C482C
:206DA0003D7000F0B5FC236832680521002543F00103019540468DF804102360904703B01C
:206DC000BDE8F08F09F00F064FF0010808FA06F813EA080FDCD00020FBF7ACFA072E10D8A4
:206DE000B9F1800F5DD03B493B4A06F2DA335B000B6013681168DBB243F002030B431360DF
:206E000013682368DAF8002062EA030111EA080F27D10DF104082D4E1BE00020FBF78AFA0A
:206E2000DAF800302D494FEA081836EA030001EB080B12D1226841F80800F6433340324093
:206E4000CAF8003022600323204E8BF80E300DF104080020FBF776FA9DE74846FFF720FFB6
:206E6000F1E71F498DF806904FEA061E01EB0E0022EA0802154ECAF800204FF0000C43EA8D
:206E80000803032241F80EC00DF10408062182738DF807208DF804103268236040469047D6
:206EA000D7E70C4B0C4A40F2B471196013681168DBB243F004030B4313601368A1E700BF59
:206EC0001C070020D52800200070024040080020180700200078024004780240200700203A
:206EE000B00700202DE9F843784BD3F80463002E44D00025764FAC4631464FF0010E754AD3
:206F000091FAA1F3B3FA83F0840022446BB314680EFA00F3D84334B1C2F800C0BFF36F8F89
:206F2000BFF34F8F1D430140E9D16B4B1B68082B35D0DFF8A88105F4000635F400050ED0EA
:206F4000DFF8AC91012795FAA5F3B3FA83F49BB159F8243007FA04F49847A543F3D198F8A5
:206F60000030A3B1BEB9BDE8F8833A68002AC6D03A464FF0FF30CFE79847E4E7564B1B6822
:206F8000082B00F08980554B1B78002BEBD1FEF799FD002EE7D0BDE8F843FFF7DBBE504B31
:206FA000DFF838811B68002BC5D198F80030002B7DD1A80240F182804A4A4B4BDFF824E1E1
:206FC000494F40F2A97111601968464A11F0FF0118BF1B6840F2AA7018BF1940424B106077
:206FE0001A68414812F0FF021CBF1B681A403D4B40F2AB741C60036813F0FF031CBF0068C3
:20700000034040F2AC70CEF8000038680140374808D0046840F2A97C0C430460CEF800C0E5
:20702000396039682F4F304C40F2AD71396021680A4009D0016840F2AA7E41EA02410160F5
:20704000C7F800E0226022682649274A40F2AE740C60126813400ED0D90748BF45F4000515
:207060002049DA06204A40F2AB740C601360136848BF45F00105036833F001121CBF06F0FE
:2070800080710D4313F0011F3FF455AF730544BF026045F480654EE7114B1B68002B7FF4A8
:2070A00072AFDFF8388098F800503DB11D4605F4000635F400057FF443AF53E705F4000624
:2070C00035F400057FF43CAF61E700BF00700240807102400071024030010010D328002029
:2070E00034010010007802400478024044080020442E010038B545B2002D33DB00F00F04D2
:20710000244B254A195D012303FA01F1C2F80413D2F81415E140C90723D4D2F81415A34086
:207120000B43C2F81435BFF36F8FBFF34F8F631E062B16D8002D14DB05460020FBF7FAF8B3
:207140002846FFF7ADFD154910340B68012202FA04F423EA04030B600020BDE83840FBF747
:20716000F1B838BD00F00F040D4B0B4A195D012303FA01F1C2F80413D2F81015E140C90787
:2071800006D4D2F81015A3400B43C2F81035CAE738BD00BF242E010000700240180700204D
:2071A000042E0100030610B504460BD400F00F03072B07D8074A9B001A445368012B01D18F
:2071C000FFF76EFD044BC3F81845BFF36F8FBFF34F8F10BD40740240007002402DE9F04FDD
:2071E0005B4D5C4E2B6832684FEA134B4FEA0B4B5BEA020B85B000F08F80574FDFF8648102
:2072000007F1900923E02046FBF794F84FF0FF3A102204F110035FFA83FE3168012303FAB0
:207220000EF3200133EA010E07EB00047AD12A6847F800E0DB431940134031602B60032302
:20724000A3730020FBF77EF81BEA0A0B64D09BFAABF4002CD7D0B4FA84F40F2CE3B24FDD19
:20726000A3F110024FF0010AD2B20AFA03FA144613466FEA0A0A072CE6D800208DE80C00E7
:20728000FBF758F8009A019B12F0800FC1D0802A4CD0324804F2DA3149000160D8F8001089
:2072A000D8F80000C9B241F002010143C8F80010D8F80010286831684FF0010C61EA000E8D
:2072C0000CFA03F31EEA030FBBD0240121EA030109EB040E316022498DF80E2003430322B9
:2072E0004FF0000C062049F804C08DF80F208EF80E208DF80C000A682B6003A89047A0E719
:207300004FF0010A0AFA03FA03F00F0443F080026FEA0A0A2346AEE740F2FF132B6005B078
:20732000BDE8F08F1046FFF7BBFC88E70B4940F2B4700860D8F80010D8F80000C9B241F049
:2073400004010143C8F80010D8F80010B2E700BF1C07002018070020200700200078024059
:20736000400800200478024008B5FFF737FF0A4B0022C3F80425BFF36F8FBFF34F8F074A12
:207380008021C2F88410BFF34F8FBFF36F8F4FF0FF32C3F8082308BD0070024000E100E030
:2073A000044B8022C3F884215B681B0600D47047FFF7DABF00E100E008B5114B8022C3F847
:2073C00084215B681B0618D40E4B0022D3F80413C3F80813C3F80025BFF36F8FBFF34F8FE5
:2073E000094B0A491B68082B04BF094B1A60094B0020012208701A7008BDFFF7B5FFE3E7CD
:2074000000E100E00070024030010010D32800201C7C0240D428002010B50020FAF78AFF48
:20742000104B1B782BB900240020FAF78BFF204610BD03F0FF04FFF7D1FE0B4AD2F800347A
:2074400013F40073EFD10121C2F82C15D2F80014890544BF1C46C2F82C350020FAF772FF67
:20746000204610BDD228002000700240F0B5044683B00020FAF75EFF23061DD4354D364863
:20748000296804F00F0202F110060123B340120133EA010700EB02064AD1304C8750226813
:2074A000DB4319401340296023600323B3730020FAF748FF03B0F0BD04F00F03072B0FD8D3
:2074C000802C39D02648274903F2DA32520002600A680868D2B242F0020202430A600A68A7
:2074E0001E4D1C4E29683068012260EA01079A401742DCD01C4F8DF806401B0120EA0200DC
:2075000007EB030E3060194C00200A43F850032106208EF80E108DF8071023688DF8040020
:2075200001A82A6098470020FAF70CFF03B0F0BD2046FFF7B5FBB8E7094A0A4940F2B47016
:2075400010600A680868D2B242F0040202430A600A68C5E718070020200700201C07002087
:207560000078024004780240B0070020400800202DE9F04146B282B005460020FAF7DAFEAF
:20758000002E3FDBDFF850E14B48DEF8002005F00F0404F1100101238B4033EA020C4FEAB1
:2075A000041100EB0108274657D1444D40F801C02968DB431A400B40CEF800202B600323B8
:2075C00088F80E300020FAF7BDFE3D490122D1F8143502FA04F423EA0404C1F81445BFF399
:2075E0006F8FBFF34F8F374B374A354932EA260228BF1A460123D25D9340C1F8083302B025
:20760000BDE8F08105F00F07072F0FD8802D44D02E492F4A07F2DA335B000B6013681168BB
:20762000DBB243F002030B43136013682348DFF8A8E00268DEF80010012361EA0204BB40BF
:207640001C420ED1DC430020FAF77CFE1C4BD3F810251440C3F81045C1E72846FFF720FB51
:20766000ADE7DFF878C08DF80650DC433D01214013432A46CEF800106544164903600020A7
:207680004CF8020003230622AB738DF807308DF804200B6801A89847D5E70C4B0C4A40F23D
:2076A000B471196013681168DBB243F004030B4313601368BAE700BF200700201C0700204B
:2076C00000700240042E0100242E010000780240047802404008002018070020B00700207C
:2076E000084B09491B68094AA1FB03139B0C916800FB03F09368CB1A23F07F438342F9D389
:20770000704700BFF400002083DE1B4310E000E000B550E8002F02EA010340E8003E9EF050
:20772000000FF6D110465DF804FB00BFF0B40D7A0DB101F10905046840F25F16B44200F028
:207740003081B4F5B07F20D340F26715AC4200F01A81B4F5B47F48D240F26315AC4200F008
:207760000281B4F5B27FC0F0048140F26515AC4200F01E81B4F5B37F40F021810124002656
:20778000002A00F066810579B4E0B4F5AD7F00F0018114D840F25716B4424AD0B4F5AC7F20
:2077A0003FD300F0238140F25915AC4240F00781002A00F0A9810579012700264DE0B4F5F7
:2077C000AE7F00F0C980C0F0058140F25D15AC4200F0F980B4F5AF7F40F0F180002A00F080
:2077E00095810579012600275FE040F26915AC4200F0AB80B4F5B47F40F20481B4F5B57F3F
:2078000000F0FA8040F26B139C4240F0D88012B101790024115540F26D1303600120F0BC3F
:207820007047002C40F0CB8009240471002B00F00281002A00F0A38104791470012B4FF000
:207840000404047140F2968102260127D455B3422D78057140F28981771C0024BB429555FF
:20786000047140F27D8125467E1C0024B342D555047140F270812546771CFF24BB4295557B
:20788000047140F2638125467E1C0124B342D555047140F25681254637190124BB429555CF
:2078A000047140F2498125463E190024B342D555047140F23C812546771C0924BB429555DC
:2078C000047140F22F8125467E1C2124B342D555047140F22281771C09259F42945505719D
:2078E00080F016817E1CD555B3420D7C057140F29D80741C95550D8AA3424FEA152505719B
:2079000040F28F80661C1555B3428D7C057140F28380741C95554D8AA3424FEA1525057172
